{
  "_format": "hh-sol-artifact-1",
  "contractName": "Nifty",
  "sourceName": "contracts/Nifty.sol",
  "abi": [
    {
      "inputs": [
        {
          "internalType": "uint256",
          "name": "startingId",
          "type": "uint256"
        }
      ],
      "stateMutability": "nonpayable",
      "type": "constructor"
    },
    {
      "anonymous": false,
      "inputs": [
        {
          "indexed": true,
          "internalType": "address",
          "name": "owner",
          "type": "address"
        },
        {
          "indexed": true,
          "internalType": "address",
          "name": "approved",
          "type": "address"
        },
        {
          "indexed": true,
          "internalType": "uint256",
          "name": "tokenId",
          "type": "uint256"
        }
      ],
      "name": "Approval",
      "type": "event"
    },
    {
      "anonymous": false,
      "inputs": [
        {
          "indexed": true,
          "internalType": "address",
          "name": "owner",
          "type": "address"
        },
        {
          "indexed": true,
          "internalType": "address",
          "name": "operator",
          "type": "address"
        },
        {
          "indexed": false,
          "internalType": "bool",
          "name": "approved",
          "type": "bool"
        }
      ],
      "name": "ApprovalForAll",
      "type": "event"
    },
    {
      "anonymous": false,
      "inputs": [
        {
          "indexed": true,
          "internalType": "address",
          "name": "from",
          "type": "address"
        },
        {
          "indexed": true,
          "internalType": "address",
          "name": "to",
          "type": "address"
        },
        {
          "indexed": true,
          "internalType": "uint256",
          "name": "tokenId",
          "type": "uint256"
        }
      ],
      "name": "Transfer",
      "type": "event"
    },
    {
      "inputs": [
        {
          "internalType": "address",
          "name": "to",
          "type": "address"
        },
        {
          "internalType": "uint256",
          "name": "tokenId",
          "type": "uint256"
        }
      ],
      "name": "approve",
      "outputs": [],
      "stateMutability": "nonpayable",
      "type": "function"
    },
    {
      "inputs": [
        {
          "internalType": "address",
          "name": "owner",
          "type": "address"
        }
      ],
      "name": "balanceOf",
      "outputs": [
        {
          "internalType": "uint256",
          "name": "",
          "type": "uint256"
        }
      ],
      "stateMutability": "view",
      "type": "function"
    },
    {
      "inputs": [
        {
          "internalType": "uint256",
          "name": "tokenId",
          "type": "uint256"
        }
      ],
      "name": "getApproved",
      "outputs": [
        {
          "internalType": "address",
          "name": "",
          "type": "address"
        }
      ],
      "stateMutability": "view",
      "type": "function"
    },
    {
      "inputs": [
        {
          "internalType": "address",
          "name": "owner",
          "type": "address"
        },
        {
          "internalType": "address",
          "name": "operator",
          "type": "address"
        }
      ],
      "name": "isApprovedForAll",
      "outputs": [
        {
          "internalType": "bool",
          "name": "",
          "type": "bool"
        }
      ],
      "stateMutability": "view",
      "type": "function"
    },
    {
      "inputs": [
        {
          "internalType": "uint256",
          "name": "number",
          "type": "uint256"
        }
      ],
      "name": "mintMany",
      "outputs": [],
      "stateMutability": "nonpayable",
      "type": "function"
    },
    {
      "inputs": [],
      "name": "mintOne",
      "outputs": [],
      "stateMutability": "nonpayable",
      "type": "function"
    },
    {
      "inputs": [
        {
          "internalType": "uint256",
          "name": "_promoCode",
          "type": "uint256"
        }
      ],
      "name": "mintPromo",
      "outputs": [],
      "stateMutability": "nonpayable",
      "type": "function"
    },
    {
      "inputs": [],
      "name": "name",
      "outputs": [
        {
          "internalType": "string",
          "name": "",
          "type": "string"
        }
      ],
      "stateMutability": "view",
      "type": "function"
    },
    {
      "inputs": [
        {
          "internalType": "uint256",
          "name": "tokenId",
          "type": "uint256"
        }
      ],
      "name": "ownerOf",
      "outputs": [
        {
          "internalType": "address",
          "name": "",
          "type": "address"
        }
      ],
      "stateMutability": "view",
      "type": "function"
    },
    {
      "inputs": [
        {
          "internalType": "uint256",
          "name": "numberToMint",
          "type": "uint256"
        }
      ],
      "name": "payToMint",
      "outputs": [],
      "stateMutability": "payable",
      "type": "function"
    },
    {
      "inputs": [],
      "name": "promoUses",
      "outputs": [
        {
          "internalType": "uint256",
          "name": "",
          "type": "uint256"
        }
      ],
      "stateMutability": "view",
      "type": "function"
    },
    {
      "inputs": [
        {
          "internalType": "address",
          "name": "from",
          "type": "address"
        },
        {
          "internalType": "address",
          "name": "to",
          "type": "address"
        },
        {
          "internalType": "uint256",
          "name": "tokenId",
          "type": "uint256"
        }
      ],
      "name": "safeTransferFrom",
      "outputs": [],
      "stateMutability": "nonpayable",
      "type": "function"
    },
    {
      "inputs": [
        {
          "internalType": "address",
          "name": "from",
          "type": "address"
        },
        {
          "internalType": "address",
          "name": "to",
          "type": "address"
        },
        {
          "internalType": "uint256",
          "name": "tokenId",
          "type": "uint256"
        },
        {
          "internalType": "bytes",
          "name": "_data",
          "type": "bytes"
        }
      ],
      "name": "safeTransferFrom",
      "outputs": [],
      "stateMutability": "nonpayable",
      "type": "function"
    },
    {
      "inputs": [
        {
          "internalType": "address",
          "name": "operator",
          "type": "address"
        },
        {
          "internalType": "bool",
          "name": "approved",
          "type": "bool"
        }
      ],
      "name": "setApprovalForAll",
      "outputs": [],
      "stateMutability": "nonpayable",
      "type": "function"
    },
    {
      "inputs": [
        {
          "internalType": "bytes4",
          "name": "interfaceId",
          "type": "bytes4"
        }
      ],
      "name": "supportsInterface",
      "outputs": [
        {
          "internalType": "bool",
          "name": "",
          "type": "bool"
        }
      ],
      "stateMutability": "view",
      "type": "function"
    },
    {
      "inputs": [],
      "name": "symbol",
      "outputs": [
        {
          "internalType": "string",
          "name": "",
          "type": "string"
        }
      ],
      "stateMutability": "view",
      "type": "function"
    },
    {
      "inputs": [
        {
          "internalType": "uint256",
          "name": "tokenId",
          "type": "uint256"
        }
      ],
      "name": "tokenURI",
      "outputs": [
        {
          "internalType": "string",
          "name": "",
          "type": "string"
        }
      ],
      "stateMutability": "view",
      "type": "function"
    },
    {
      "inputs": [
        {
          "internalType": "address",
          "name": "from",
          "type": "address"
        },
        {
          "internalType": "address",
          "name": "to",
          "type": "address"
        },
        {
          "internalType": "uint256",
          "name": "tokenId",
          "type": "uint256"
        }
      ],
      "name": "transferFrom",
      "outputs": [],
      "stateMutability": "nonpayable",
      "type": "function"
    }
  ],
  "bytecode": "0x60806040526103e860075562010f2c600855600a8055662386f26fc10000600b553480156200002d57600080fd5b5060405162002edf38038062002edf8339818101604052810190620000539190620001c8565b6040518060400160405280600581526020017f4e696674790000000000000000000000000000000000000000000000000000008152506040518060400160405280600381526020017f4e465400000000000000000000000000000000000000000000000000000000008152508160009080519060200190620000d792919062000101565b508060019080519060200190620000f092919062000101565b505050806006819055505062000288565b8280546200010f9062000204565b90600052602060002090601f0160209004810192826200013357600085556200017f565b82601f106200014e57805160ff19168380011785556200017f565b828001600101855582156200017f579182015b828111156200017e57825182559160200191906001019062000161565b5b5090506200018e919062000192565b5090565b5b80821115620001ad57600081600090555060010162000193565b5090565b600081519050620001c2816200026e565b92915050565b600060208284031215620001e157620001e062000269565b5b6000620001f184828501620001b1565b91505092915050565b6000819050919050565b600060028204905060018216806200021d57607f821691505b602082108114156200023457620002336200023a565b5b50919050565b7f4e487b7100000000000000000000000000000000000000000000000000000000600052602260045260246000fd5b600080fd5b6200027981620001fa565b81146200028557600080fd5b50565b612c4780620002986000396000f3fe6080604052600436106101095760003560e01c80636352211e11610095578063b88d4fde11610064578063b88d4fde14610358578063ba9fbac514610381578063c87b56dd146103ac578063e79433f5146103e9578063e985e9c51461041257610109565b80636352211e1461028a57806370a08231146102c757806395d89b4114610304578063a22cb4651461032f57610109565b8063095ea7b3116100dc578063095ea7b3146101dc5780630ced86371461020557806323b872dd1461021c57806342842e0e146102455780635c4c94ae1461026e57610109565b806301ffc9a71461010e578063059513a61461014b57806306fdde0314610174578063081812fc1461019f575b600080fd5b34801561011a57600080fd5b5061013560048036038101906101309190611bf0565b61044f565b6040516101429190612048565b60405180910390f35b34801561015757600080fd5b50610172600480360381019061016d9190611c4a565b610531565b005b34801561018057600080fd5b5061018961055c565b6040516101969190612063565b60405180910390f35b3480156101ab57600080fd5b506101c660048036038101906101c19190611c4a565b6105ee565b6040516101d39190611fe1565b60405180910390f35b3480156101e857600080fd5b5061020360048036038101906101fe9190611bb0565b610673565b005b34801561021157600080fd5b5061021a61078b565b005b34801561022857600080fd5b50610243600480360381019061023e9190611a9a565b610796565b005b34801561025157600080fd5b5061026c60048036038101906102679190611a9a565b6107f6565b005b61028860048036038101906102839190611c4a565b610816565b005b34801561029657600080fd5b506102b160048036038101906102ac9190611c4a565b610872565b6040516102be9190611fe1565b60405180910390f35b3480156102d357600080fd5b506102ee60048036038101906102e99190611a2d565b610924565b6040516102fb91906122c5565b60405180910390f35b34801561031057600080fd5b506103196109dc565b6040516103269190612063565b60405180910390f35b34801561033b57600080fd5b5061035660048036038101906103519190611b70565b610a6e565b005b34801561036457600080fd5b5061037f600480360381019061037a9190611aed565b610bef565b005b34801561038d57600080fd5b50610396610c51565b6040516103a391906122c5565b60405180910390f35b3480156103b857600080fd5b506103d360048036038101906103ce9190611c4a565b610c57565b6040516103e09190612063565b60405180910390f35b3480156103f557600080fd5b50610410600480360381019061040b9190611c4a565b610cfe565b005b34801561041e57600080fd5b5061043960048036038101906104349190611a5a565b610dac565b6040516104469190612048565b60405180910390f35b60007f80ac58cd000000000000000000000000000000000000000000000000000000007bffffffffffffffffffffffffffffffffffffffffffffffffffffffff1916827bffffffffffffffffffffffffffffffffffffffffffffffffffffffff1916148061051a57507f5b5e139f000000000000000000000000000000000000000000000000000000007bffffffffffffffffffffffffffffffffffffffffffffffffffffffff1916827bffffffffffffffffffffffffffffffffffffffffffffffffffffffff1916145b8061052a575061052982610e40565b5b9050919050565b60005b818110156105585761054533610eaa565b8080610550906125a7565b915050610534565b5050565b60606000805461056b90612544565b80601f016020809104026020016040519081016040528092919081815260200182805461059790612544565b80156105e45780601f106105b9576101008083540402835291602001916105e4565b820191906000526020600020905b8154815290600101906020018083116105c757829003601f168201915b5050505050905090565b60006105f982610f23565b610638576040517f08c379a000000000000000000000000000000000000000000000000000000000815260040161062f90612205565b60405180910390fd5b6004600083815260200190815260200160002060009054906101000a900473ffffffffffffffffffffffffffffffffffffffff169050919050565b600061067e82610872565b90508073ffffffffffffffffffffffffffffffffffffffff168373ffffffffffffffffffffffffffffffffffffffff1614156106ef576040517f08c379a00000000000000000000000000000000000000000000000000000000081526004016106e690612285565b60405180910390fd5b8073ffffffffffffffffffffffffffffffffffffffff1661070e610f8f565b73ffffffffffffffffffffffffffffffffffffffff16148061073d575061073c81610737610f8f565b610dac565b5b61077c576040517f08c379a000000000000000000000000000000000000000000000000000000000815260040161077390612165565b60405180910390fd5b6107868383610f97565b505050565b61079433610eaa565b565b6107a76107a1610f8f565b82611050565b6107e6576040517f08c379a00000000000000000000000000000000000000000000000000000000081526004016107dd906122a5565b60405180910390fd5b6107f183838361112e565b505050565b61081183838360405180602001604052806000815250610bef565b505050565b80600b546108249190612400565b341015610866576040517f08c379a000000000000000000000000000000000000000000000000000000000815260040161085d906121e5565b60405180910390fd5b61086f81610531565b50565b6000806002600084815260200190815260200160002060009054906101000a900473ffffffffffffffffffffffffffffffffffffffff169050600073ffffffffffffffffffffffffffffffffffffffff168173ffffffffffffffffffffffffffffffffffffffff16141561091b576040517f08c379a0000000000000000000000000000000000000000000000000000000008152600401610912906121a5565b60405180910390fd5b80915050919050565b60008073ffffffffffffffffffffffffffffffffffffffff168273ffffffffffffffffffffffffffffffffffffffff161415610995576040517f08c379a000000000000000000000000000000000000000000000000000000000815260040161098c90612185565b60405180910390fd5b600360008373ffffffffffffffffffffffffffffffffffffffff1673ffffffffffffffffffffffffffffffffffffffff168152602001908152602001600020549050919050565b6060600180546109eb90612544565b80601f0160208091040260200160405190810160405280929190818152602001828054610a1790612544565b8015610a645780601f10610a3957610100808354040283529160200191610a64565b820191906000526020600020905b815481529060010190602001808311610a4757829003601f168201915b5050505050905090565b610a76610f8f565b73ffffffffffffffffffffffffffffffffffffffff168273ffffffffffffffffffffffffffffffffffffffff161415610ae4576040517f08c379a0000000000000000000000000000000000000000000000000000000008152600401610adb90612125565b60405180910390fd5b8060056000610af1610f8f565b73ffffffffffffffffffffffffffffffffffffffff1673ffffffffffffffffffffffffffffffffffffffff16815260200190815260200160002060008473ffffffffffffffffffffffffffffffffffffffff1673ffffffffffffffffffffffffffffffffffffffff16815260200190815260200160002060006101000a81548160ff0219169083151502179055508173ffffffffffffffffffffffffffffffffffffffff16610b9e610f8f565b73ffffffffffffffffffffffffffffffffffffffff167f17307eab39ab6107e8899845ad3d59bd9653f200f220920489ca2b5937696c3183604051610be39190612048565b60405180910390a35050565b610c00610bfa610f8f565b83611050565b610c3f576040517f08c379a0000000000000000000000000000000000000000000000000000000008152600401610c36906122a5565b60405180910390fd5b610c4b8484848461138a565b50505050565b60095481565b6060610c6282610f23565b610ca1576040517f08c379a0000000000000000000000000000000000000000000000000000000008152600401610c9890612245565b60405180910390fd5b6000610cab6113e6565b90506000815111610ccb5760405180602001604052806000815250610cf6565b80610cd5846113fd565b604051602001610ce6929190611fbd565b6040516020818303038152906040525b915050919050565b6008548114610d42576040517f08c379a0000000000000000000000000000000000000000000000000000000008152600401610d3990612085565b60405180910390fd5b600a5460095410610d88576040517f08c379a0000000000000000000000000000000000000000000000000000000008152600401610d7f906120e5565b60405180910390fd5b60096000815480929190610d9b906125a7565b9190505550610da933610eaa565b50565b6000600560008473ffffffffffffffffffffffffffffffffffffffff1673ffffffffffffffffffffffffffffffffffffffff16815260200190815260200160002060008373ffffffffffffffffffffffffffffffffffffffff1673ffffffffffffffffffffffffffffffffffffffff16815260200190815260200160002060009054906101000a900460ff16905092915050565b60007f01ffc9a7000000000000000000000000000000000000000000000000000000007bffffffffffffffffffffffffffffffffffffffffffffffffffffffff1916827bffffffffffffffffffffffffffffffffffffffffffffffffffffffff1916149050919050565b6007546001600654610ebc9190612379565b10610efc576040517f08c379a0000000000000000000000000000000000000000000000000000000008152600401610ef390612265565b60405180910390fd5b610f088160065461155e565b60066000815480929190610f1b906125a7565b919050555050565b60008073ffffffffffffffffffffffffffffffffffffffff166002600084815260200190815260200160002060009054906101000a900473ffffffffffffffffffffffffffffffffffffffff1673ffffffffffffffffffffffffffffffffffffffff1614159050919050565b600033905090565b816004600083815260200190815260200160002060006101000a81548173ffffffffffffffffffffffffffffffffffffffff021916908373ffffffffffffffffffffffffffffffffffffffff160217905550808273ffffffffffffffffffffffffffffffffffffffff1661100a83610872565b73ffffffffffffffffffffffffffffffffffffffff167f8c5be1e5ebec7d5bd14f71427d1e84f3dd0314c0f7b2291e5b200ac8c7c3b92560405160405180910390a45050565b600061105b82610f23565b61109a576040517f08c379a000000000000000000000000000000000000000000000000000000000815260040161109190612145565b60405180910390fd5b60006110a583610872565b90508073ffffffffffffffffffffffffffffffffffffffff168473ffffffffffffffffffffffffffffffffffffffff16148061111457508373ffffffffffffffffffffffffffffffffffffffff166110fc846105ee565b73ffffffffffffffffffffffffffffffffffffffff16145b8061112557506111248185610dac565b5b91505092915050565b8273ffffffffffffffffffffffffffffffffffffffff1661114e82610872565b73ffffffffffffffffffffffffffffffffffffffff16146111a4576040517f08c379a000000000000000000000000000000000000000000000000000000000815260040161119b90612225565b60405180910390fd5b600073ffffffffffffffffffffffffffffffffffffffff168273ffffffffffffffffffffffffffffffffffffffff161415611214576040517f08c379a000000000000000000000000000000000000000000000000000000000815260040161120b90612105565b60405180910390fd5b61121f83838361157c565b61122a600082610f97565b6001600360008573ffffffffffffffffffffffffffffffffffffffff1673ffffffffffffffffffffffffffffffffffffffff168152602001908152602001600020600082825461127a919061245a565b925050819055506001600360008473ffffffffffffffffffffffffffffffffffffffff1673ffffffffffffffffffffffffffffffffffffffff16815260200190815260200160002060008282546112d19190612379565b92505081905550816002600083815260200190815260200160002060006101000a81548173ffffffffffffffffffffffffffffffffffffffff021916908373ffffffffffffffffffffffffffffffffffffffff160217905550808273ffffffffffffffffffffffffffffffffffffffff168473ffffffffffffffffffffffffffffffffffffffff167fddf252ad1be2c89b69c2b068fc378daa952ba7f163c4a11628f55a4df523b3ef60405160405180910390a4505050565b61139584848461112e565b6113a184848484611581565b6113e0576040517f08c379a00000000000000000000000000000000000000000000000000000000081526004016113d7906120a5565b60405180910390fd5b50505050565b606060405180602001604052806000815250905090565b60606000821415611445576040518060400160405280600181526020017f30000000000000000000000000000000000000000000000000000000000000008152509050611559565b600082905060005b60008214611477578080611460906125a7565b915050600a8261147091906123cf565b915061144d565b60008167ffffffffffffffff811115611493576114926126dd565b5b6040519080825280601f01601f1916602001820160405280156114c55781602001600182028036833780820191505090505b5090505b60008514611552576001826114de919061245a565b9150600a856114ed91906125f0565b60306114f99190612379565b60f81b81838151811061150f5761150e6126ae565b5b60200101907effffffffffffffffffffffffffffffffffffffffffffffffffffffffffffff1916908160001a905350600a8561154b91906123cf565b94506114c9565b8093505050505b919050565b611578828260405180602001604052806000815250611718565b5050565b505050565b60006115a28473ffffffffffffffffffffffffffffffffffffffff16611773565b1561170b578373ffffffffffffffffffffffffffffffffffffffff1663150b7a026115cb610f8f565b8786866040518563ffffffff1660e01b81526004016115ed9493929190611ffc565b602060405180830381600087803b15801561160757600080fd5b505af192505050801561163857506040513d601f19601f820116820180604052508101906116359190611c1d565b60015b6116bb573d8060008114611668576040519150601f19603f3d011682016040523d82523d6000602084013e61166d565b606091505b506000815114156116b3576040517f08c379a00000000000000000000000000000000000000000000000000000000081526004016116aa906120a5565b60405180910390fd5b805181602001fd5b63150b7a0260e01b7bffffffffffffffffffffffffffffffffffffffffffffffffffffffff1916817bffffffffffffffffffffffffffffffffffffffffffffffffffffffff191614915050611710565b600190505b949350505050565b6117228383611786565b61172f6000848484611581565b61176e576040517f08c379a0000000000000000000000000000000000000000000000000000000008152600401611765906120a5565b60405180910390fd5b505050565b600080823b905060008111915050919050565b600073ffffffffffffffffffffffffffffffffffffffff168273ffffffffffffffffffffffffffffffffffffffff1614156117f6576040517f08c379a00000000000000000000000000000000000000000000000000000000081526004016117ed906121c5565b60405180910390fd5b6117ff81610f23565b1561183f576040517f08c379a0000000000000000000000000000000000000000000000000000000008152600401611836906120c5565b60405180910390fd5b61184b6000838361157c565b6001600360008473ffffffffffffffffffffffffffffffffffffffff1673ffffffffffffffffffffffffffffffffffffffff168152602001908152602001600020600082825461189b9190612379565b92505081905550816002600083815260200190815260200160002060006101000a81548173ffffffffffffffffffffffffffffffffffffffff021916908373ffffffffffffffffffffffffffffffffffffffff160217905550808273ffffffffffffffffffffffffffffffffffffffff16600073ffffffffffffffffffffffffffffffffffffffff167fddf252ad1be2c89b69c2b068fc378daa952ba7f163c4a11628f55a4df523b3ef60405160405180910390a45050565b600061196761196284612305565b6122e0565b90508281526020810184848401111561198357611982612711565b5b61198e848285612502565b509392505050565b6000813590506119a581612bb5565b92915050565b6000813590506119ba81612bcc565b92915050565b6000813590506119cf81612be3565b92915050565b6000815190506119e481612be3565b92915050565b600082601f8301126119ff576119fe61270c565b5b8135611a0f848260208601611954565b91505092915050565b600081359050611a2781612bfa565b92915050565b600060208284031215611a4357611a4261271b565b5b6000611a5184828501611996565b91505092915050565b60008060408385031215611a7157611a7061271b565b5b6000611a7f85828601611996565b9250506020611a9085828601611996565b9150509250929050565b600080600060608486031215611ab357611ab261271b565b5b6000611ac186828701611996565b9350506020611ad286828701611996565b9250506040611ae386828701611a18565b9150509250925092565b60008060008060808587031215611b0757611b0661271b565b5b6000611b1587828801611996565b9450506020611b2687828801611996565b9350506040611b3787828801611a18565b925050606085013567ffffffffffffffff811115611b5857611b57612716565b5b611b64878288016119ea565b91505092959194509250565b60008060408385031215611b8757611b8661271b565b5b6000611b9585828601611996565b9250506020611ba6858286016119ab565b9150509250929050565b60008060408385031215611bc757611bc661271b565b5b6000611bd585828601611996565b9250506020611be685828601611a18565b9150509250929050565b600060208284031215611c0657611c0561271b565b5b6000611c14848285016119c0565b91505092915050565b600060208284031215611c3357611c3261271b565b5b6000611c41848285016119d5565b91505092915050565b600060208284031215611c6057611c5f61271b565b5b6000611c6e84828501611a18565b91505092915050565b611c808161248e565b82525050565b611c8f816124a0565b82525050565b6000611ca082612336565b611caa818561234c565b9350611cba818560208601612511565b611cc381612720565b840191505092915050565b6000611cd982612341565b611ce3818561235d565b9350611cf3818560208601612511565b611cfc81612720565b840191505092915050565b6000611d1282612341565b611d1c818561236e565b9350611d2c818560208601612511565b80840191505092915050565b6000611d4560128361235d565b9150611d5082612731565b602082019050919050565b6000611d6860328361235d565b9150611d738261275a565b604082019050919050565b6000611d8b601c8361235d565b9150611d96826127a9565b602082019050919050565b6000611dae60138361235d565b9150611db9826127d2565b602082019050919050565b6000611dd160248361235d565b9150611ddc826127fb565b604082019050919050565b6000611df460198361235d565b9150611dff8261284a565b602082019050919050565b6000611e17602c8361235d565b9150611e2282612873565b604082019050919050565b6000611e3a60388361235d565b9150611e45826128c2565b604082019050919050565b6000611e5d602a8361235d565b9150611e6882612911565b604082019050919050565b6000611e8060298361235d565b9150611e8b82612960565b604082019050919050565b6000611ea360208361235d565b9150611eae826129af565b602082019050919050565b6000611ec6600e8361235d565b9150611ed1826129d8565b602082019050919050565b6000611ee9602c8361235d565b9150611ef482612a01565b604082019050919050565b6000611f0c60298361235d565b9150611f1782612a50565b604082019050919050565b6000611f2f602f8361235d565b9150611f3a82612a9f565b604082019050919050565b6000611f5260138361235d565b9150611f5d82612aee565b602082019050919050565b6000611f7560218361235d565b9150611f8082612b17565b604082019050919050565b6000611f9860318361235d565b9150611fa382612b66565b604082019050919050565b611fb7816124f8565b82525050565b6000611fc98285611d07565b9150611fd58284611d07565b91508190509392505050565b6000602082019050611ff66000830184611c77565b92915050565b60006080820190506120116000830187611c77565b61201e6020830186611c77565b61202b6040830185611fae565b818103606083015261203d8184611c95565b905095945050505050565b600060208201905061205d6000830184611c86565b92915050565b6000602082019050818103600083015261207d8184611cce565b905092915050565b6000602082019050818103600083015261209e81611d38565b9050919050565b600060208201905081810360008301526120be81611d5b565b9050919050565b600060208201905081810360008301526120de81611d7e565b9050919050565b600060208201905081810360008301526120fe81611da1565b9050919050565b6000602082019050818103600083015261211e81611dc4565b9050919050565b6000602082019050818103600083015261213e81611de7565b9050919050565b6000602082019050818103600083015261215e81611e0a565b9050919050565b6000602082019050818103600083015261217e81611e2d565b9050919050565b6000602082019050818103600083015261219e81611e50565b9050919050565b600060208201905081810360008301526121be81611e73565b9050919050565b600060208201905081810360008301526121de81611e96565b9050919050565b600060208201905081810360008301526121fe81611eb9565b9050919050565b6000602082019050818103600083015261221e81611edc565b9050919050565b6000602082019050818103600083015261223e81611eff565b9050919050565b6000602082019050818103600083015261225e81611f22565b9050919050565b6000602082019050818103600083015261227e81611f45565b9050919050565b6000602082019050818103600083015261229e81611f68565b9050919050565b600060208201905081810360008301526122be81611f8b565b9050919050565b60006020820190506122da6000830184611fae565b92915050565b60006122ea6122fb565b90506122f68282612576565b919050565b6000604051905090565b600067ffffffffffffffff8211156123205761231f6126dd565b5b61232982612720565b9050602081019050919050565b600081519050919050565b600081519050919050565b600082825260208201905092915050565b600082825260208201905092915050565b600081905092915050565b6000612384826124f8565b915061238f836124f8565b9250827fffffffffffffffffffffffffffffffffffffffffffffffffffffffffffffffff038211156123c4576123c3612621565b5b828201905092915050565b60006123da826124f8565b91506123e5836124f8565b9250826123f5576123f4612650565b5b828204905092915050565b600061240b826124f8565b9150612416836124f8565b9250817fffffffffffffffffffffffffffffffffffffffffffffffffffffffffffffffff048311821515161561244f5761244e612621565b5b828202905092915050565b6000612465826124f8565b9150612470836124f8565b92508282101561248357612482612621565b5b828203905092915050565b6000612499826124d8565b9050919050565b60008115159050919050565b60007fffffffff0000000000000000000000000000000000000000000000000000000082169050919050565b600073ffffffffffffffffffffffffffffffffffffffff82169050919050565b6000819050919050565b82818337600083830152505050565b60005b8381101561252f578082015181840152602081019050612514565b8381111561253e576000848401525b50505050565b6000600282049050600182168061255c57607f821691505b602082108114156125705761256f61267f565b5b50919050565b61257f82612720565b810181811067ffffffffffffffff8211171561259e5761259d6126dd565b5b80604052505050565b60006125b2826124f8565b91507fffffffffffffffffffffffffffffffffffffffffffffffffffffffffffffffff8214156125e5576125e4612621565b5b600182019050919050565b60006125fb826124f8565b9150612606836124f8565b92508261261657612615612650565b5b828206905092915050565b7f4e487b7100000000000000000000000000000000000000000000000000000000600052601160045260246000fd5b7f4e487b7100000000000000000000000000000000000000000000000000000000600052601260045260246000fd5b7f4e487b7100000000000000000000000000000000000000000000000000000000600052602260045260246000fd5b7f4e487b7100000000000000000000000000000000000000000000000000000000600052603260045260246000fd5b7f4e487b7100000000000000000000000000000000000000000000000000000000600052604160045260246000fd5b600080fd5b600080fd5b600080fd5b600080fd5b6000601f19601f8301169050919050565b7f496e76616c69642070726f6d6f20636f64650000000000000000000000000000600082015250565b7f4552433732313a207472616e7366657220746f206e6f6e20455243373231526560008201527f63656976657220696d706c656d656e7465720000000000000000000000000000602082015250565b7f4552433732313a20746f6b656e20616c7265616479206d696e74656400000000600082015250565b7f50726f6d6f206c696d6974207265616368656400000000000000000000000000600082015250565b7f4552433732313a207472616e7366657220746f20746865207a65726f2061646460008201527f7265737300000000000000000000000000000000000000000000000000000000602082015250565b7f4552433732313a20617070726f766520746f2063616c6c657200000000000000600082015250565b7f4552433732313a206f70657261746f7220717565727920666f72206e6f6e657860008201527f697374656e7420746f6b656e0000000000000000000000000000000000000000602082015250565b7f4552433732313a20617070726f76652063616c6c6572206973206e6f74206f7760008201527f6e6572206e6f7220617070726f76656420666f7220616c6c0000000000000000602082015250565b7f4552433732313a2062616c616e636520717565727920666f7220746865207a6560008201527f726f206164647265737300000000000000000000000000000000000000000000602082015250565b7f4552433732313a206f776e657220717565727920666f72206e6f6e657869737460008201527f656e7420746f6b656e0000000000000000000000000000000000000000000000602082015250565b7f4552433732313a206d696e7420746f20746865207a65726f2061646472657373600082015250565b7f4e6f7420656e6f75676820455448000000000000000000000000000000000000600082015250565b7f4552433732313a20617070726f76656420717565727920666f72206e6f6e657860008201527f697374656e7420746f6b656e0000000000000000000000000000000000000000602082015250565b7f4552433732313a207472616e73666572206f6620746f6b656e2074686174206960008201527f73206e6f74206f776e0000000000000000000000000000000000000000000000602082015250565b7f4552433732314d657461646174613a2055524920717565727920666f72206e6f60008201527f6e6578697374656e7420746f6b656e0000000000000000000000000000000000602082015250565b7f4d6178206e756d62657220726561636865642e00000000000000000000000000600082015250565b7f4552433732313a20617070726f76616c20746f2063757272656e74206f776e6560008201527f7200000000000000000000000000000000000000000000000000000000000000602082015250565b7f4552433732313a207472616e736665722063616c6c6572206973206e6f74206f60008201527f776e6572206e6f7220617070726f766564000000000000000000000000000000602082015250565b612bbe8161248e565b8114612bc957600080fd5b50565b612bd5816124a0565b8114612be057600080fd5b50565b612bec816124ac565b8114612bf757600080fd5b50565b612c03816124f8565b8114612c0e57600080fd5b5056fea26469706673582212202b8386729130618e46acd4b7d2c8b78d8befcf644962dbcbfaed7f5e053e89dc64736f6c63430008060033",
  "linkReferences": {},
  "deployedLinkReferences": {}
}